{
  "_format": "hh-sol-artifact-1",
  "contractName": "Cryptodz",
  "sourceName": "contracts/Cryptodz.sol",
  "abi": [
    {
      "inputs": [
        {
          "internalType": "string",
          "name": "_name",
          "type": "string"
        },
        {
          "internalType": "string",
          "name": "_symbol",
          "type": "string"
        },
        {
          "internalType": "uint8",
          "name": "_decimals",
          "type": "uint8"
        },
        {
          "internalType": "uint256",
          "name": "_initialSupply",
          "type": "uint256"
        },
        {
          "internalType": "uint256",
          "name": "_tokenPrice",
          "type": "uint256"
        }
      ],
      "stateMutability": "nonpayable",
      "type": "constructor"
    },
    {
      "anonymous": false,
      "inputs": [
        {
          "indexed": true,
          "internalType": "address",
          "name": "owner",
          "type": "address"
        },
        {
          "indexed": true,
          "internalType": "address",
          "name": "spender",
          "type": "address"
        },
        {
          "indexed": false,
          "internalType": "uint256",
          "name": "value",
          "type": "uint256"
        }
      ],
      "name": "Approval",
      "type": "event"
    },
    {
      "anonymous": false,
      "inputs": [
        {
          "indexed": true,
          "internalType": "address",
          "name": "from",
          "type": "address"
        },
        {
          "indexed": true,
          "internalType": "address",
          "name": "to",
          "type": "address"
        },
        {
          "indexed": false,
          "internalType": "uint256",
          "name": "value",
          "type": "uint256"
        }
      ],
      "name": "Transfer",
      "type": "event"
    },
    {
      "inputs": [
        {
          "internalType": "address",
          "name": "",
          "type": "address"
        },
        {
          "internalType": "address",
          "name": "",
          "type": "address"
        }
      ],
      "name": "allowance",
      "outputs": [
        {
          "internalType": "uint256",
          "name": "",
          "type": "uint256"
        }
      ],
      "stateMutability": "view",
      "type": "function"
    },
    {
      "inputs": [
        {
          "internalType": "address",
          "name": "spender",
          "type": "address"
        },
        {
          "internalType": "uint256",
          "name": "amount",
          "type": "uint256"
        }
      ],
      "name": "approve",
      "outputs": [
        {
          "internalType": "bool",
          "name": "",
          "type": "bool"
        }
      ],
      "stateMutability": "nonpayable",
      "type": "function"
    },
    {
      "inputs": [
        {
          "internalType": "address",
          "name": "",
          "type": "address"
        }
      ],
      "name": "balanceOf",
      "outputs": [
        {
          "internalType": "uint256",
          "name": "",
          "type": "uint256"
        }
      ],
      "stateMutability": "view",
      "type": "function"
    },
    {
      "inputs": [],
      "name": "buyTokens",
      "outputs": [],
      "stateMutability": "payable",
      "type": "function"
    },
    {
      "inputs": [],
      "name": "decimals",
      "outputs": [
        {
          "internalType": "uint8",
          "name": "",
          "type": "uint8"
        }
      ],
      "stateMutability": "view",
      "type": "function"
    },
    {
      "inputs": [],
      "name": "getTokenPrice",
      "outputs": [
        {
          "internalType": "uint256",
          "name": "",
          "type": "uint256"
        }
      ],
      "stateMutability": "view",
      "type": "function"
    },
    {
      "inputs": [
        {
          "internalType": "address",
          "name": "account",
          "type": "address"
        },
        {
          "internalType": "uint256",
          "name": "amount",
          "type": "uint256"
        }
      ],
      "name": "mint",
      "outputs": [],
      "stateMutability": "nonpayable",
      "type": "function"
    },
    {
      "inputs": [],
      "name": "name",
      "outputs": [
        {
          "internalType": "string",
          "name": "",
          "type": "string"
        }
      ],
      "stateMutability": "view",
      "type": "function"
    },
    {
      "inputs": [
        {
          "internalType": "uint256",
          "name": "amount",
          "type": "uint256"
        }
      ],
      "name": "sellTokens",
      "outputs": [],
      "stateMutability": "nonpayable",
      "type": "function"
    },
    {
      "inputs": [
        {
          "internalType": "uint256",
          "name": "_price",
          "type": "uint256"
        }
      ],
      "name": "setTokenPrice",
      "outputs": [],
      "stateMutability": "nonpayable",
      "type": "function"
    },
    {
      "inputs": [],
      "name": "symbol",
      "outputs": [
        {
          "internalType": "string",
          "name": "",
          "type": "string"
        }
      ],
      "stateMutability": "view",
      "type": "function"
    },
    {
      "inputs": [],
      "name": "tokenPrice",
      "outputs": [
        {
          "internalType": "uint256",
          "name": "",
          "type": "uint256"
        }
      ],
      "stateMutability": "view",
      "type": "function"
    },
    {
      "inputs": [],
      "name": "totalSupply",
      "outputs": [
        {
          "internalType": "uint256",
          "name": "",
          "type": "uint256"
        }
      ],
      "stateMutability": "view",
      "type": "function"
    },
    {
      "inputs": [
        {
          "internalType": "address",
          "name": "recipient",
          "type": "address"
        },
        {
          "internalType": "uint256",
          "name": "amount",
          "type": "uint256"
        }
      ],
      "name": "transfer",
      "outputs": [
        {
          "internalType": "bool",
          "name": "",
          "type": "bool"
        }
      ],
      "stateMutability": "nonpayable",
      "type": "function"
    },
    {
      "inputs": [
        {
          "internalType": "address",
          "name": "sender",
          "type": "address"
        },
        {
          "internalType": "address",
          "name": "recipient",
          "type": "address"
        },
        {
          "internalType": "uint256",
          "name": "amount",
          "type": "uint256"
        }
      ],
      "name": "transferFrom",
      "outputs": [
        {
          "internalType": "bool",
          "name": "",
          "type": "bool"
        }
      ],
      "stateMutability": "nonpayable",
      "type": "function"
    }
  ],
  "bytecode": "0x60806040523480156200001157600080fd5b50604051620025513803806200255183398181016040528101906200003791906200030e565b846000908162000048919062000615565b5083600190816200005a919062000615565b5082600260006101000a81548160ff021916908360ff160217905550600260009054906101000a900460ff1660ff16600a6200009791906200087f565b82620000a49190620008d0565b600381905550600354600560003373ffffffffffffffffffffffffffffffffffffffff1673ffffffffffffffffffffffffffffffffffffffff168152602001908152602001600020819055508060048190555050505050506200091b565b6000604051905090565b600080fd5b600080fd5b600080fd5b600080fd5b6000601f19601f8301169050919050565b7f4e487b7100000000000000000000000000000000000000000000000000000000600052604160045260246000fd5b6200016b8262000120565b810181811067ffffffffffffffff821117156200018d576200018c62000131565b5b80604052505050565b6000620001a262000102565b9050620001b0828262000160565b919050565b600067ffffffffffffffff821115620001d357620001d262000131565b5b620001de8262000120565b9050602081019050919050565b60005b838110156200020b578082015181840152602081019050620001ee565b60008484015250505050565b60006200022e6200022884620001b5565b62000196565b9050828152602081018484840111156200024d576200024c6200011b565b5b6200025a848285620001eb565b509392505050565b600082601f8301126200027a576200027962000116565b5b81516200028c84826020860162000217565b91505092915050565b600060ff82169050919050565b620002ad8162000295565b8114620002b957600080fd5b50565b600081519050620002cd81620002a2565b92915050565b6000819050919050565b620002e881620002d3565b8114620002f457600080fd5b50565b6000815190506200030881620002dd565b92915050565b600080600080600060a086880312156200032d576200032c6200010c565b5b600086015167ffffffffffffffff8111156200034e576200034d62000111565b5b6200035c8882890162000262565b955050602086015167ffffffffffffffff81111562000380576200037f62000111565b5b6200038e8882890162000262565b9450506040620003a188828901620002bc565b9350506060620003b488828901620002f7565b9250506080620003c788828901620002f7565b9150509295509295909350565b600081519050919050565b7f4e487b7100000000000000000000000000000000000000000000000000000000600052602260045260246000fd5b600060028204905060018216806200042757607f821691505b6020821081036200043d576200043c620003df565b5b50919050565b60008190508160005260206000209050919050565b60006020601f8301049050919050565b600082821b905092915050565b600060088302620004a77fffffffffffffffffffffffffffffffffffffffffffffffffffffffffffffffff8262000468565b620004b3868362000468565b95508019841693508086168417925050509392505050565b6000819050919050565b6000620004f6620004f0620004ea84620002d3565b620004cb565b620002d3565b9050919050565b6000819050919050565b6200051283620004d5565b6200052a6200052182620004fd565b84845462000475565b825550505050565b600090565b6200054162000532565b6200054e81848462000507565b505050565b5b8181101562000576576200056a60008262000537565b60018101905062000554565b5050565b601f821115620005c5576200058f8162000443565b6200059a8462000458565b81016020851015620005aa578190505b620005c2620005b98562000458565b83018262000553565b50505b505050565b600082821c905092915050565b6000620005ea60001984600802620005ca565b1980831691505092915050565b6000620006058383620005d7565b9150826002028217905092915050565b6200062082620003d4565b67ffffffffffffffff8111156200063c576200063b62000131565b5b6200064882546200040e565b620006558282856200057a565b600060209050601f8311600181146200068d576000841562000678578287015190505b620006848582620005f7565b865550620006f4565b601f1984166200069d8662000443565b60005b82811015620006c757848901518255600182019150602085019450602081019050620006a0565b86831015620006e75784890151620006e3601f891682620005d7565b8355505b6001600288020188555050505b505050505050565b7f4e487b7100000000000000000000000000000000000000000000000000000000600052601160045260246000fd5b60008160011c9050919050565b6000808291508390505b60018511156200078a57808604811115620007625762000761620006fc565b5b6001851615620007725780820291505b808102905062000782856200072b565b945062000742565b94509492505050565b600082620007a5576001905062000878565b81620007b5576000905062000878565b8160018114620007ce5760028114620007d9576200080f565b600191505062000878565b60ff841115620007ee57620007ed620006fc565b5b8360020a915084821115620008085762000807620006fc565b5b5062000878565b5060208310610133831016604e8410600b8410161715620008495782820a905083811115620008435762000842620006fc565b5b62000878565b62000858848484600162000738565b92509050818404811115620008725762000871620006fc565b5b81810290505b9392505050565b60006200088c82620002d3565b91506200089983620002d3565b9250620008c87fffffffffffffffffffffffffffffffffffffffffffffffffffffffffffffffff848462000793565b905092915050565b6000620008dd82620002d3565b9150620008ea83620002d3565b9250828202620008fa81620002d3565b91508282048414831517620009145762000913620006fc565b5b5092915050565b611c26806200092b6000396000f3fe6080604052600436106100e85760003560e01c80636a61e5fc1161008a57806395d89b411161005957806395d89b41146102f6578063a9059cbb14610321578063d0febe4c1461035e578063dd62ed3e14610368576100e8565b80636a61e5fc1461023c5780636c11bcd31461026557806370a082311461028e5780637ff9b596146102cb576100e8565b806323b872dd116100c657806323b872dd14610180578063313ce567146101bd57806340c10f19146101e85780634b94f50e14610211576100e8565b806306fdde03146100ed578063095ea7b31461011857806318160ddd14610155575b600080fd5b3480156100f957600080fd5b506101026103a5565b60405161010f9190611144565b60405180910390f35b34801561012457600080fd5b5061013f600480360381019061013a91906111ff565b610433565b60405161014c919061125a565b60405180910390f35b34801561016157600080fd5b5061016a610525565b6040516101779190611284565b60405180910390f35b34801561018c57600080fd5b506101a760048036038101906101a2919061129f565b61052b565b6040516101b4919061125a565b60405180910390f35b3480156101c957600080fd5b506101d2610695565b6040516101df919061130e565b60405180910390f35b3480156101f457600080fd5b5061020f600480360381019061020a91906111ff565b6106a8565b005b34801561021d57600080fd5b50610226610831565b6040516102339190611284565b60405180910390f35b34801561024857600080fd5b50610263600480360381019061025e9190611329565b61083b565b005b34801561027157600080fd5b5061028c60048036038101906102879190611329565b610845565b005b34801561029a57600080fd5b506102b560048036038101906102b09190611356565b610ae4565b6040516102c29190611284565b60405180910390f35b3480156102d757600080fd5b506102e0610afc565b6040516102ed9190611284565b60405180910390f35b34801561030257600080fd5b5061030b610b02565b6040516103189190611144565b60405180910390f35b34801561032d57600080fd5b50610348600480360381019061034391906111ff565b610b90565b604051610355919061125a565b60405180910390f35b610366610ba7565b005b34801561037457600080fd5b5061038f600480360381019061038a9190611383565b610dbb565b60405161039c9190611284565b60405180910390f35b600080546103b2906113f2565b80601f01602080910402602001604051908101604052809291908181526020018280546103de906113f2565b801561042b5780601f106104005761010080835404028352916020019161042b565b820191906000526020600020905b81548152906001019060200180831161040e57829003601f168201915b505050505081565b600081600660003373ffffffffffffffffffffffffffffffffffffffff1673ffffffffffffffffffffffffffffffffffffffff16815260200190815260200160002060008573ffffffffffffffffffffffffffffffffffffffff1673ffffffffffffffffffffffffffffffffffffffff168152602001908152602001600020819055508273ffffffffffffffffffffffffffffffffffffffff163373ffffffffffffffffffffffffffffffffffffffff167f8c5be1e5ebec7d5bd14f71427d1e84f3dd0314c0f7b2291e5b200ac8c7c3b925846040516105139190611284565b60405180910390a36001905092915050565b60035481565b600081600660008673ffffffffffffffffffffffffffffffffffffffff1673ffffffffffffffffffffffffffffffffffffffff16815260200190815260200160002060003373ffffffffffffffffffffffffffffffffffffffff1673ffffffffffffffffffffffffffffffffffffffff1681526020019081526020016000205410156105ec576040517f08c379a00000000000000000000000000000000000000000000000000000000081526004016105e39061146f565b60405180910390fd5b6105f7848484610de0565b81600660008673ffffffffffffffffffffffffffffffffffffffff1673ffffffffffffffffffffffffffffffffffffffff16815260200190815260200160002060003373ffffffffffffffffffffffffffffffffffffffff1673ffffffffffffffffffffffffffffffffffffffff168152602001908152602001600020600082825461068391906114be565b92505081905550600190509392505050565b600260009054906101000a900460ff1681565b600073ffffffffffffffffffffffffffffffffffffffff168273ffffffffffffffffffffffffffffffffffffffff1603610717576040517f08c379a000000000000000000000000000000000000000000000000000000000815260040161070e9061153e565b60405180910390fd5b61072c8160035461105690919063ffffffff16565b60038190555061078481600560008573ffffffffffffffffffffffffffffffffffffffff1673ffffffffffffffffffffffffffffffffffffffff1681526020019081526020016000205461105690919063ffffffff16565b600560008473ffffffffffffffffffffffffffffffffffffffff1673ffffffffffffffffffffffffffffffffffffffff168152602001908152602001600020819055508173ffffffffffffffffffffffffffffffffffffffff16600073ffffffffffffffffffffffffffffffffffffffff167fddf252ad1be2c89b69c2b068fc378daa952ba7f163c4a11628f55a4df523b3ef836040516108259190611284565b60405180910390a35050565b6000600454905090565b8060048190555050565b60008111610888576040517f08c379a000000000000000000000000000000000000000000000000000000000815260040161087f906115aa565b60405180910390fd5b80600560003373ffffffffffffffffffffffffffffffffffffffff1673ffffffffffffffffffffffffffffffffffffffff16815260200190815260200160002054101561090a576040517f08c379a000000000000000000000000000000000000000000000000000000000815260040161090190611616565b60405180910390fd5b6000600260009054906101000a900460ff1660ff16600a61092b9190611769565b6004548361093991906117b4565b6109439190611825565b905080471015610988576040517f08c379a000000000000000000000000000000000000000000000000000000000815260040161097f906118c8565b60405180910390fd5b81600560003373ffffffffffffffffffffffffffffffffffffffff1673ffffffffffffffffffffffffffffffffffffffff16815260200190815260200160002060008282546109d791906114be565b9250508190555081600560003073ffffffffffffffffffffffffffffffffffffffff1673ffffffffffffffffffffffffffffffffffffffff1681526020019081526020016000206000828254610a2d91906118e8565b925050819055503373ffffffffffffffffffffffffffffffffffffffff166108fc829081150290604051600060405180830381858888f19350505050158015610a7a573d6000803e3d6000fd5b503073ffffffffffffffffffffffffffffffffffffffff163373ffffffffffffffffffffffffffffffffffffffff167fddf252ad1be2c89b69c2b068fc378daa952ba7f163c4a11628f55a4df523b3ef84604051610ad89190611284565b60405180910390a35050565b60056020528060005260406000206000915090505481565b60045481565b60018054610b0f906113f2565b80601f0160208091040260200160405190810160405280929190818152602001828054610b3b906113f2565b8015610b885780601f10610b5d57610100808354040283529160200191610b88565b820191906000526020600020905b815481529060010190602001808311610b6b57829003601f168201915b505050505081565b6000610b9d338484610de0565b6001905092915050565b60003411610bea576040517f08c379a0000000000000000000000000000000000000000000000000000000008152600401610be190611968565b60405180910390fd5b6000600454600260009054906101000a900460ff1660ff16600a610c0e9190611769565b34610c1991906117b4565b610c239190611825565b905080600560003073ffffffffffffffffffffffffffffffffffffffff1673ffffffffffffffffffffffffffffffffffffffff168152602001908152602001600020541015610ca7576040517f08c379a0000000000000000000000000000000000000000000000000000000008152600401610c9e906119d4565b60405180910390fd5b80600560003373ffffffffffffffffffffffffffffffffffffffff1673ffffffffffffffffffffffffffffffffffffffff1681526020019081526020016000206000828254610cf691906118e8565b9250508190555080600560003073ffffffffffffffffffffffffffffffffffffffff1673ffffffffffffffffffffffffffffffffffffffff1681526020019081526020016000206000828254610d4c91906114be565b925050819055503373ffffffffffffffffffffffffffffffffffffffff163073ffffffffffffffffffffffffffffffffffffffff167fddf252ad1be2c89b69c2b068fc378daa952ba7f163c4a11628f55a4df523b3ef83604051610db09190611284565b60405180910390a350565b6006602052816000526040600020602052806000526040600020600091509150505481565b600073ffffffffffffffffffffffffffffffffffffffff168373ffffffffffffffffffffffffffffffffffffffff1603610e4f576040517f08c379a0000000000000000000000000000000000000000000000000000000008152600401610e4690611a66565b60405180910390fd5b600073ffffffffffffffffffffffffffffffffffffffff168273ffffffffffffffffffffffffffffffffffffffff1603610ebe576040517f08c379a0000000000000000000000000000000000000000000000000000000008152600401610eb590611af8565b60405180910390fd5b80600560008573ffffffffffffffffffffffffffffffffffffffff1673ffffffffffffffffffffffffffffffffffffffff168152602001908152602001600020541015610f40576040517f08c379a0000000000000000000000000000000000000000000000000000000008152600401610f3790611b64565b60405180910390fd5b80600560008573ffffffffffffffffffffffffffffffffffffffff1673ffffffffffffffffffffffffffffffffffffffff1681526020019081526020016000206000828254610f8f91906114be565b9250508190555080600560008473ffffffffffffffffffffffffffffffffffffffff1673ffffffffffffffffffffffffffffffffffffffff1681526020019081526020016000206000828254610fe591906118e8565b925050819055508173ffffffffffffffffffffffffffffffffffffffff168373ffffffffffffffffffffffffffffffffffffffff167fddf252ad1be2c89b69c2b068fc378daa952ba7f163c4a11628f55a4df523b3ef836040516110499190611284565b60405180910390a3505050565b600080828461106591906118e8565b9050838110156110aa576040517f08c379a00000000000000000000000000000000000000000000000000000000081526004016110a190611bd0565b60405180910390fd5b8091505092915050565b600081519050919050565b600082825260208201905092915050565b60005b838110156110ee5780820151818401526020810190506110d3565b60008484015250505050565b6000601f19601f8301169050919050565b6000611116826110b4565b61112081856110bf565b93506111308185602086016110d0565b611139816110fa565b840191505092915050565b6000602082019050818103600083015261115e818461110b565b905092915050565b600080fd5b600073ffffffffffffffffffffffffffffffffffffffff82169050919050565b60006111968261116b565b9050919050565b6111a68161118b565b81146111b157600080fd5b50565b6000813590506111c38161119d565b92915050565b6000819050919050565b6111dc816111c9565b81146111e757600080fd5b50565b6000813590506111f9816111d3565b92915050565b6000806040838503121561121657611215611166565b5b6000611224858286016111b4565b9250506020611235858286016111ea565b9150509250929050565b60008115159050919050565b6112548161123f565b82525050565b600060208201905061126f600083018461124b565b92915050565b61127e816111c9565b82525050565b60006020820190506112996000830184611275565b92915050565b6000806000606084860312156112b8576112b7611166565b5b60006112c6868287016111b4565b93505060206112d7868287016111b4565b92505060406112e8868287016111ea565b9150509250925092565b600060ff82169050919050565b611308816112f2565b82525050565b600060208201905061132360008301846112ff565b92915050565b60006020828403121561133f5761133e611166565b5b600061134d848285016111ea565b91505092915050565b60006020828403121561136c5761136b611166565b5b600061137a848285016111b4565b91505092915050565b6000806040838503121561139a57611399611166565b5b60006113a8858286016111b4565b92505060206113b9858286016111b4565b9150509250929050565b7f4e487b7100000000000000000000000000000000000000000000000000000000600052602260045260246000fd5b6000600282049050600182168061140a57607f821691505b60208210810361141d5761141c6113c3565b5b50919050565b7f45524332303a20696e73756666696369656e7420616c6c6f77616e6365000000600082015250565b6000611459601d836110bf565b915061146482611423565b602082019050919050565b600060208201905081810360008301526114888161144c565b9050919050565b7f4e487b7100000000000000000000000000000000000000000000000000000000600052601160045260246000fd5b60006114c9826111c9565b91506114d4836111c9565b92508282039050818111156114ec576114eb61148f565b5b92915050565b7f45524332303a206d696e7420746f20746865207a65726f206164647265737300600082015250565b6000611528601f836110bf565b9150611533826114f2565b602082019050919050565b600060208201905081810360008301526115578161151b565b9050919050565b7f416d6f756e74206d7573742062652067726561746572207468616e2030000000600082015250565b6000611594601d836110bf565b915061159f8261155e565b602082019050919050565b600060208201905081810360008301526115c381611587565b9050919050565b7f496e73756666696369656e742062616c616e6365000000000000000000000000600082015250565b60006116006014836110bf565b915061160b826115ca565b602082019050919050565b6000602082019050818103600083015261162f816115f3565b9050919050565b60008160011c9050919050565b6000808291508390505b600185111561168d578086048111156116695761166861148f565b5b60018516156116785780820291505b808102905061168685611636565b945061164d565b94509492505050565b6000826116a65760019050611762565b816116b45760009050611762565b81600181146116ca57600281146116d457611703565b6001915050611762565b60ff8411156116e6576116e561148f565b5b8360020a9150848211156116fd576116fc61148f565b5b50611762565b5060208310610133831016604e8410600b84101617156117385782820a9050838111156117335761173261148f565b5b611762565b6117458484846001611643565b9250905081840481111561175c5761175b61148f565b5b81810290505b9392505050565b6000611774826111c9565b915061177f836111c9565b92506117ac7fffffffffffffffffffffffffffffffffffffffffffffffffffffffffffffffff8484611696565b905092915050565b60006117bf826111c9565b91506117ca836111c9565b92508282026117d8816111c9565b915082820484148315176117ef576117ee61148f565b5b5092915050565b7f4e487b7100000000000000000000000000000000000000000000000000000000600052601260045260246000fd5b6000611830826111c9565b915061183b836111c9565b92508261184b5761184a6117f6565b5b828204905092915050565b7f436f6e74726163742068617320696e73756666696369656e742062616c616e6360008201527f6500000000000000000000000000000000000000000000000000000000000000602082015250565b60006118b26021836110bf565b91506118bd82611856565b604082019050919050565b600060208201905081810360008301526118e1816118a5565b9050919050565b60006118f3826111c9565b91506118fe836111c9565b92508282019050808211156119165761191561148f565b5b92915050565b7f56616c7565206d7573742062652067726561746572207468616e203000000000600082015250565b6000611952601c836110bf565b915061195d8261191c565b602082019050919050565b6000602082019050818103600083015261198181611945565b9050919050565b7f496e73756666696369656e7420746f6b656e7320696e20636f6e747261637400600082015250565b60006119be601f836110bf565b91506119c982611988565b602082019050919050565b600060208201905081810360008301526119ed816119b1565b9050919050565b7f45524332303a207472616e736665722066726f6d20746865207a65726f20616460008201527f6472657373000000000000000000000000000000000000000000000000000000602082015250565b6000611a506025836110bf565b9150611a5b826119f4565b604082019050919050565b60006020820190508181036000830152611a7f81611a43565b9050919050565b7f45524332303a207472616e7366657220746f20746865207a65726f206164647260008201527f6573730000000000000000000000000000000000000000000000000000000000602082015250565b6000611ae26023836110bf565b9150611aed82611a86565b604082019050919050565b60006020820190508181036000830152611b1181611ad5565b9050919050565b7f45524332303a20696e73756666696369656e742062616c616e63650000000000600082015250565b6000611b4e601b836110bf565b9150611b5982611b18565b602082019050919050565b60006020820190508181036000830152611b7d81611b41565b9050919050565b7f536166654d6174683a206164646974696f6e206f766572666c6f770000000000600082015250565b6000611bba601b836110bf565b9150611bc582611b84565b602082019050919050565b60006020820190508181036000830152611be981611bad565b905091905056fea2646970667358221220322c330afad1db781758c54d525c1621c7844b8d51376723f31f25722e31afc764736f6c63430008180033",
  "linkReferences": {},
  "deployedLinkReferences": {}
}